:1020000000800020312E0000192E0000192E000043
:1020100000000000000000000000000000000000C0
:10202000000000000000000000000000192E000069
:102030000000000000000000192E0000852E0000A6
:10204000192E0000192E0000192E0000192E000074
:10205000192E0000192E0000192E00001D2E000060
:10206000192E000009260000192E0000192E00006C
:10207000192E0000192E000019260000192E00004C
:10208000192E0000192E0000192E0000192E000034
:1020900000000000192E0000192E0000192E00006B
:1020A000192E0000192E0000192E0000192E000014
:1020B0000000000010B5064C2378002B07D1054B1B
:1020C000002B02D0044800E000BF0123237010BDA4
:1020D00024010020000000004C4F000008B5084B10
:1020E000002B03D00748084900E000BF07480368F9
:1020F000002B03D0064B002B00D0984708BDC046EC
:10210000000000004C4F00002801002020010020AA
:102110000000000008B5114B0021186801F0C6F856
:102120000F4B0021186801F0C1F80E4B0021186810
:1021300001F0BCF80C4B0021186801F0B7F80B4B0C
:102140000021186801F0B2F8094B0021186801F06D
:10215000ADF80848084900F0E1FA08BD0400002085
:10216000080000200C0000201000002014000020B7
:102170005C010020400100201C4A000070B5104C9A
:102180002368013323600F4B186801F025F80E4DCA
:1021900021682B680D4EC01828600A2905D102F06D
:1021A000EDFA002330602B60236034680A21201C84
:1021B00002F03AFB0A22611A054800F0FEFA70BDEF
:1021C0006001002008000020580100205401002078
:1021D0004001002010B5054C201C00F05BF8201CCD
:1021E0000349044A02F02CFB10BDC0464001002008
:1021F000B9220000000000200020704708B5002030
:1022000000F0CAF908BD13B50122041C01A9002081
:1022100000F026F9227C002A07D0012809D1019B71
:102220000020D9B200F072F901E0012801D1019833
:1022300001E00120404216BD08B5002000F066F91B
:1022400008BD70B5061C00200D1C00F009F9337C98
:10225000041C002B06D0002804DD0020291C221CB1
:1022600000F03AF9201C70BD08B5002000F034F9E8
:1022700008BD08B5002000F0BBF908BD08B5002076
:1022800000F078F9002803D0012000F009FEF6E7FD
:1022900008BD0000FA2210B592008260054A0023B2
:1022A0000832041C43600260037400F05FF9201CD4
:1022B00010BDC046284A0000014B08330360704738
:1022C000284A00000269C3689A4204D8806810183E
:1022D0000138C01A01E0013AD01A7047F7B5836897
:1022E000C668041C40680191151C9F1B8019974209
:1022F00003D902F0EDFAAD190AE001993A1C02F097
:10230000E7FA019BED1BD91960682A1C02F0E0FA7C
:10231000E560F7BDF7B5171CC4680022061C0191E3
:1023200000923369B568A34200D85B19013B1B1BBF
:102330002D1BBD4200D93D1C9D4200D91D1C736858
:102340002A1C1819019902F0C3FA009A019B52192C
:102350000092B2685B1964190193A31A5A1E934143
:102360005B421C407F1BF460DBD10098FEBD000087
:1023700010B5144CA822201C002102F0B2FA03234D
:102380002361114A6361114BA261E3618023DB0089
:1023900023620023A3626362E36222660C4A6266E0
:1023A0001022A2662367E3666367131C09491022A3
:1023B000C91801390978D21A013BA154002BF5D173
:1023C00010BDC046000D0020614A000074010020CD
:1023D00064010020504A0000F7B5204E041C3378F9
:1023E0000191171C532B01D0FFF7C2FF18235C4348
:1023F00060343619F268346900920025944216D987
:10240000B2683D1C131B9F4200D91D1C73682A1C17
:102410001919019802F05CFA019A64195219019293
:10242000B2687F1BA31A5A1E93415B421C40009B5B
:102430001B1B0093BB4200D90097009A002A07D0CB
:1024400073680198191902F043FA009AAD18A4189C
:10245000002D00D03461281CFEBDC046000D0020B8
:1024600010B50B1CEFF31084012181F31088191CA7
:10247000FFF7B2FF84F3108810BD0000F8B50130FB
:1024800018254543134B0F1CED186E69141C012EC3
:102490000ED0002E06D0022E16D1281CFFF73AFFD0
:1024A000041C14E0281CFFF70DFFA0420ED305E02A
:1024B000281CFFF707FF844200D9041C281C391C84
:1024C000221CFFF70BFF02E0002400E0341C201C5C
:1024D000F8BDC046000D0020F8B50B4B071C1B785B
:1024E0000E1C151C532B01D0FFF742FFEFF3108495
:1024F000012181F31088381C311C2A1CFFF7BEFF14
:1025000084F31088F8BDC046000D0020F8B5164BC6
:10251000061C1A780C1C1D1C532A01D0FFF728FF3B
:10252000EFF31087012181F31088182001367043E2
:102530002818C2688568531C591B4D1EA941494281
:102540000B404169022902D101698B42FCD001692B
:102550008B4205D04568AA181470C360012000E0C2
:10256000002087F31088F8BD000D002008B5FFF7A4
:10257000FFFE08BD18225043064A1218131C2033D0
:10258000906A5B68984201D8181A02E0126A101823
:10259000C01A7047000D0020094B021C197800205A
:1025A00081420CD018214A436032D2181069D36896
:1025B000984201D8181A02E092688018C01A704731
:1025C000000D0020094B1A78002A0CD01822504325
:1025D0006030C0180369C268934204D04268D318BF
:1025E0001878C0B201E0012040427047000D002081
:1025F00010B5EFF31084012181F31088FFF7E2FF9B
:1026000084F3108810BD000008B5024800F02AFBD2
:1026100008BDC0463006002008B5024800F022FB85
:1026200008BDC04674050020F7B5164F1649381C82
:1026300000F0CDF81549164800F0C9F815491648BC
:1026400000F0C5F81549164800F0C1F815491648BC
:1026500000F0BDF8154D03260124281C144900F094
:10266000B6F8391C0096231C01940022114800F092
:1026700019FA0096291C01941F221E230E4800F00F
:1026800011FAF7BDF006002000080042000C0042DD
:10269000F406002000100042F8060020001400425A
:1026A000EC06002000180042FC0600200007002075
:1026B000001C00423006002074050020F7B58A187F
:1026C000061C0D1C01920C1C019B671B9C4207D031
:1026D000336821781B68301C984701340028F3D1F7
:1026E000381CFEBD38B5051C0C1C081E07D002F0B6
:1026F00067F92B68021C5B68281C211C984738BDB1
:1027000008B503681B68984708BD000008B5024972
:10271000FFF7E8FF08BDC0468C4E000038B5041C2A
:10272000FFF7E0FF051C201CFFF7F0FF281838BD5D
:10273000F0B58DB0161C0BAB002201900C1C1A706A
:10274000012E00D80A266D462B35201C311C02F0C4
:102750000BF8201CCFB2311C01F0C2FF291C041C55
:10276000092F01D8303700E03737FFB22F70013D15
:10277000002CEAD10198FFF7B5FF0DB0F0BDF8B518
:10278000041C0D1C161E04D10368C9B21B689847AF
:1027900012E00A2A0DD100290ADA2D21FFF7B0FF35
:1027A0006942071C321C201CFFF7C2FFC01903E05E
:1027B00000E0D2B2FFF7BCFFF8BD38B5041CFFF74C
:1027C000DEFF051C201CFFF7A1FF281838BD0160A3
:1027D0007047F7B508AC267804689D1E27686C1E04
:1027E000A541ECB2920705683A4327063A432A60AE
:1027F0000268072529405068B501002C00D05C0311
:10280000294301430C435460F7BD30B50368C0252C
:102810001C68AD0312052A402243C024A402090407
:1028200021401143196003685A6814435C6030BD4D
:10283000036801211A680A431A60026811680123BB
:102840001942FBD1D1691942F8D1704703680221BE
:102850001A680A431A600268D3699907FCD4704762
:1028600003681A7ED10702D41A7E9107FCD57047FF
:10287000036800225A8370470368187E4007C00F20
:1028800070470368187EC009704703688022197E6C
:1028900052420A431A7670470368187E0123184093
:1028A00070470368188DC0B2704703681A7E012014
:1028B0000242FBD019857047036801229A75704760
:1028C000036801221A7570470368224A30B59342A3
:1028D00011D0214A934211D0204A934211D0204A6C
:1028E000934211D01F4A934211D01F4A934230D1D4
:1028F0000E2319220DE0092314220AE00A231522CF
:1029000007E00B23162204E00C23172201E00D231D
:102910001822DCB2154901209B08A0409B000860EA
:102920005B180320C021890004405D58E000FF24AB
:102930008440A5432C1CC0258540281C20435850AA
:102940008023DB011A430A4B5A805A7852B2002A7C
:10295000FBDB30BD00080042000C004200100042CA
:102960000014004200180042001C004200E100E098
:10297000000C0040F8B5041C151C0E1C1F1CFFF7B2
:10298000A3FF201CFFF754FFB1001C220A40690777
:102990002368090C0A431A60226884239375012E68
:1029A0001AD10821012D00D110210C4B7943186850
:1029B000C00001F095FE236807219A890140D204E6
:1029C0004903D20C0A439A8123680004C20C9889F7
:1029D000400B400310439881F8BDC046180000200A
:1029E0000120704708B50368014A1B6A984708BD73
:1029F00013040000826D436D9A4203D0836DC018AA
:102A0000007D01E001204042704710B5041C0069C0
:102A1000FFF70EFF0023221C63659C32A365A034E0
:102A20001360236010BD0000F0B587B001930CABBC
:102A30001B78002502930DAB1B78402603930EAB49
:102A40001B78041C04930FAB1B780F1C0593FA230F
:102A50009B008360124B0092083303604560291C81
:102A6000321C143001F03DFF201C6565321CA56549
:102A7000291C5C3001F035FF009A231C9C331D603B
:102A80005D6027611A72019A201C5A72029A9A722A
:102A9000039ADA72049A1A73059A1A7707B0F0BD8E
:102AA000A04E000030B585B0041C08A8057809A820
:102AB000007800950190FF2002900390201CFFF702
:102AC000B3FF201C05B030BDF023081C184030387F
:102AD000434258417047F0231B01194080239B005B
:102AE00099420CD0C0239B00994206D080235B0002
:102AF0000520994204D0002002E0072000E00620D3
:102B000070470F231940012905D002394B424B4130
:102B10000220C01A00E0002070470000F0B5031C3E
:102B200085B00391A433041C182718783B1C434339
:102B3000344E0821F3185956151C00F041FC231C93
:102B4000A53318783B1C43430821F318595600F06D
:102B500037FC231CA7331B78022B0AD1231CB83364
:102B60001878FF2805D047430821F719795600F057
:102B700027FC271CA8373878FF281AD0012100F03D
:102B800095FB3B7818225A43B3561F4FDB01211C9B
:102B9000AC31D81908601D49B6185B18211C726841
:102BA000B0310B60012191400A1C211CB4310A6034
:102BB0001A6001210A1C039B2069FFF7DBFE291C18
:102BC000201CFFF788FF291C071C201CFFF799FF1A
:102BD000291C061C201CFFF777FF391C0090331CB2
:102BE00020690122FFF7F5FD231CA7331978013B6B
:102BF0001A782069FFF709FE2069FFF727FE05B064
:102C0000F0BDC0466C4A0000184400411444004125
:102C1000026C436CD01A00D54030704710B5041CCC
:102C2000201C5C30FFF7F4FF0028F9D12069FFF782
:102C300017FE10BD08B51430FFF7EAFF08BD026C9F
:102C4000436C9A4204DB036C406CC01A3F3003E0D3
:102C5000426C036CD01A0138704708B55C30FFF73E
:102C6000EEFF08BD38B5041C0069FFF705FE00281B
:102C70001FD02069FFF715FE636D3F22013313401B
:102C8000A26D934203D0626DA21810756365231C78
:102C9000A8331B78FF2B0CD0201C1430FFF7CFFF7C
:102CA000092806DC231C221CAC33B4321B681268D2
:102CB0001A602069FFF7F0FD002820D0251C5C3544
:102CC000281CFFF7A5FF031C2069002B15D0231C2F
:102CD000221CA0339C3219681268914207D01A68EE
:102CE000A95C1A683F2501322A401A6001E00121DF
:102CF0004942C9B2FFF7D9FD01E0FFF7E1FD2069C4
:102D0000FFF7BFFD002805D02069FFF7BEFD206951
:102D1000FFF7AEFD38BD000070B5041C00690D1C46
:102D2000FFF7BAFD00280FD0201C5C30FFF770FFC2
:102D3000002840D008E0EFF31083DA0723D4214BBA
:102D40005A68D205D20D0BD1231C9C33211C1E685E
:102D5000A0310A6801363F2006409642EBD01BE0C6
:102D6000103AD2B253B2002B08DA0F231A40083AB5
:102D7000154B92089200D218536804E09B08C033A8
:102D8000124A9B009B582069FFF786FD0028DBD084
:102D9000201CFFF767FFD7E71A6809680132024075
:102DA0008A4204D01968201C5C3045541A6020699E
:102DB000FFF782FD03E02069291CFFF776FD012063
:102DC00070BDC04600ED00E018ED00E000E100E05D
:102DD00038B5826D436D041C9A4208D0836D3F2242
:102DE000C3181D7D836D01331340836501E0012508
:102DF0006D42231CA8331B78FF2B0BD0201C1430F2
:102E0000FFF71DFF0A2805DD231CB033B4341B680F
:102E100022681A60281C38BDFEE7000008B5034B85
:102E20001B68002B00D0984708BDC046040700204F
:102E300038B50F490F4CA14204D100F06FF800F0F3
:102E40004DF80BE00C4D8D42F7D00023CA18E8185E
:102E5000A24204D2006804331060F7E7FEE7904214
:102E6000EBD0064B064A9342E7D2002204C3F9E7AF
:102E70000000002024010020504F00002401002009
:102E8000AC0D002008B500F026F8002801D100F0B4
:102E900017F808BD014B18607047C04604070020B2
:102EA00070B5041E08D0054B1D681E1C00F012F8FA
:102EB00033685B1BA342F9D370BDC04608070020EE
:102EC00008B5034B1A6801321A6000F0E9FA08BD30
:102ED00008070020704700207047704710B500F0C9
:102EE000D1F801F0C5FCFFF7F8FF0120FFF7D8FF8C
:102EF000084C201C00F04AFD201C00F0BFFDFFF72D
:102F000009F9FFF73BF9044B002BFAD000E000BFB2
:102F1000F7E7C046BB0B00200000000070B5494A2F
:102F20001E21536802208B430343474953608B693A
:102F3000082423438B61454C454B9C829C8A20434B
:102F40009882101CDA689407FCD5424A0124147058
:102F50001478E50704D53F4C647864B2002CF7DBA5
:102F600001249460547864B2002CFBDB3A4D394C58
:102F70006560547864B2002CFBDB8225354CED0192
:102F80006580547864B2002CFBDB02249C84DC68EE
:102F9000E606FCD5314D2E4CE562DD682C4CEE0684
:102FA000FBD5A58C2E4E3543A584DD68284CEE0656
:102FB000FBD5A58C02263543A584DC682506FCD507
:102FC000234CE4686606F8D5DC68E506FCD50024E9
:102FD0009460547864B2002CFBDB224D1D4C65607C
:102FE00055781C4C6DB2002DFADB1E6A1E4D354023
:102FF0001D621D6A8026B5431D620323A3601B4B1F
:10300000636053785BB2002BFBDB00230B72184A22
:103010004B728B72CB72174BFF211A60164B174AFB
:103020001B6812685C01D20E214011439A06520FB0
:1030300012020B1C1343124A138543688022134368
:10304000436070BD00400041000400400C060000D9
:1030500000080040000C004001050100B905FF7D9B
:10306000040A000000070300FFFCFFFF0306010045
:10307000006CDC02180000202460800020608000CA
:10308000004000422E4BFA21186810B5890001F06B
:1030900027FB2C4B0138984224D82B4A2B4B5060ED
:1030A000186AC0210002000A0906014319620021C2
:1030B000916007211160196A80220902090A12062B
:1030C0000A431A62224BFC211A6A0A431A62196ADD
:1030D000FC2292010A431A62196AA022D2020A4310
:1030E0001A6200E0FEE71B4C63785BB2002BFADB50
:1030F000194B6380194B5A7ED209012AFAD0E42277
:10310000D2009A803F22DA70597E144AC9090129F7
:10311000FAD0C0235B0100201361907000F02EF8FC
:1031200063785BB2002BFBDB0D4A0A4B5A800D4BD8
:10313000DA79D209012AFAD041225A7010BDC0466C
:1031400018000020FFFFFF0010E000E000ED00E0AD
:1031500000040040000C00401E40000000400042FF
:103160002140000000480042914205D002D9891A4E
:10317000C84001E0511A88407047000000B5144A69
:10318000517E131CC9090129F9D00138042813D82C
:103190001969104A0A401A615A780F218A4301F0CE
:1031A00095FA030509070300012102E0032100E06D
:1031B00002210A435A700AE01169F0231B050B43F0
:1031C000136153780F218B4302210B43537000BDD1
:1031D00000400042FFFFFFF010B5041E0D2C00D888
:1031E0000E34201C012100F0EBF80E2C0CD12A4BE0
:1031F000DA79D209012AFAD01A7802218A431A70A0
:10320000DA79D209012AFBD0244B5A7ED209012A4D
:10321000FAD018225443224A18691419217C1F221B
:1032200090431140021C0A431A61597E1B4AC90986
:103230000129FAD01178022001431170597E174AF2
:10324000C9090129FAD0117B022001431173012120
:103250001176597E114AC9090129FAD0117B022041
:10326000014311731A7ED107FCD50C4A508B80B2F2
:10327000597E0A4AC9090129FAD011780224A143CA
:1032800011705A7ED209012AFBD0064B1968064BF1
:103290001A68FFF769FF10BD004800420040004275
:1032A0006C4A00001C0000202000002010B51824EB
:1032B000021C201C5043274B1818007A40B20130E2
:1032C00046D0032944D8081C211C01F0FFF9023321
:1032D0001121624398569A18C3011F4852681B185F
:1032E00099184031022008700121914059602FE067
:1032F0006243985618499A185268C3015B18991886
:1033000040310620087001219140596099611FE009
:1033100051435A56104859184B68D2011118C81811
:103320004030062404700120984048600B49521830
:1033300050600DE0624398569A18C30106485268DF
:103340001B189918403102200870012191409960A2
:1033500010BDC0466C4A00000044004110440041CA
:1033600018235843134AF0B5131808241C57013486
:103370001FD08256104ED2015D6801249019231C83
:103380008668AB401E420BD10E1C771EBE41401911
:1033900034404030A50004780426B4432C43047024
:1033A000002903D105495218536002E0024E9219D8
:1033B0009361F0BD6C4A000000440041104400419C
:1033C00018224243F8B52D4D0824AA181457031C9F
:1033D000621C50D0481C00240C284CD801F076F90F
:1033E000071E1E1E1E1E1E1E1E0A0A0A0A00012499
:1033F000644240E0092902D1181C002103E00A2997
:1034000004D1181C0221FFF751FF23E000240B29EF
:1034100031D1181C0121FFF749FF2CE0182253433A
:10342000EA185268EB560120141C04405508DB01D1
:10343000002C11D0124C1B195D1930352E780C015F
:103440000F21314021439A18C9B2297040321378B4
:103450001843107000240EE0094E0F279B195D19C8
:1034600030352E789A18BE433143C9B229704032A4
:10347000137818431070201CF8BDC0466C4A000039
:1034800000440041014B18607047C04624000020F2
:10349000024B012252421A607047C04624000020AD
:1034A000114A1368591C1DD0013B1360002B19D120
:1034B00072B60E4B1A7DD107FBD5198B2022FF3235
:1034C0000A431A830A4ADA610A4A1A801A7DD10726
:1034D000FCD5BFF34F8F084A084BDA60BFF34F8F1C
:1034E000C046FDE77047C046240000200040004170
:1034F0000210000002A5FFFF0400FA0500ED00E045
:1035000010B507230F220240141C00093034092A89
:1035100000DD0734CC54013BF4D210BD70B58229D4
:103520001ED1C2B22A495301CB189D69294C800192
:103530002C40C025AD052C439C61274C0832201837
:1035400058610B68520199180C7980204042204341
:103550000871D15C7020814330200143D15435E0A3
:10356000002933D1C2B21A495301CB189E68194DB4
:10357000C0242E40A40526439E60184E8001096891
:103580003018083258605201505C0726B0430126BB
:10359000304350549E6935402C439C610E4C5C6115
:1035A000505C7024A0431024204350549C680C4865
:1035B0008A18204080246403204398609868402142
:1035C000800B8003986053790B43537170BDC046E4
:1035D000C40B0020FFFFFF8F18080020DC0900202B
:1035E000FF3F00F038B5041C08CC01211A78051CF7
:1035F0000A431A708022201C0021520001F071F948
:103600002B689A78D107FCD45C6238BD134BF0B5B7
:103610001B6899035A029B01C90ED20E5B0F1F292A
:1036200000D105211F2A00D11D22072B00D1032321
:1036300004688E01278D0A491F25394031432185B1
:1036400001682A400C8DAC4322430A8502681903A5
:10365000108D044B03400B431385F0BD24608000A4
:103660003FF8FFFFFF8FFFFFEFF31083036001239D
:10367000436072B670470368002B02D162B6BFF395
:103680006F8F704737B50569041C6846002D12D14D
:10369000FFF7EAFF019B013B03D3621DD57FEDB22B
:1036A000F9E768460193FFF7E6FF0020854217D04F
:1036B000206AE36913E0FFF7D7FF019B0025013B78
:1036C00004D3221C34321578EDB2F8E76846019332
:1036D000FFF7D1FF0020854202D0206BE36AC01AB9
:1036E0003EBD0000436810B51A68037A01215B01F2
:1036F000D318FF339A7A0A439A72037A42685B01BD
:10370000D318C2689C6891040B4A090922400A43F5
:103710009A60037A42685B01D3189A684021920B41
:1037200092039A6043681A68037A08335B01D318DE
:103730001A790A431A7110BDFF3F00F0F7B5056909
:10374000041C0E1C171C6846002D1FD1FFF78CFFB0
:10375000019B013B5A1C06D0621DD17F5A1E0029D5
:103760003AD0131CF6E768460193FFF784FF002563
:10377000E369BD4235D0226A934232D25A1CE261DB
:10378000A269D3181B7873550135F1E7FFF76CFF79
:10379000019B013B5A1C08D0221C343215785A1E5A
:1037A000EDB2002D18D0131CF4E768460193FFF723
:1037B00062FF0025E36ABD4226D0226B934241D3CB
:1037C00022E0621D0021D17730321678581E8E42D9
:1037D00014D1031C5A1CF4D168460193FFF74BFF28
:1037E00038E0226A934235D10023E361012323614B
:1037F0006846FFF739FF019B013BEBE71170201C86
:103800000193FFF76FFFF6E7226B934222D100236B
:10381000E36223616846FFF727FF019B013B5A1CC7
:10382000DAD0221C34320021117001321678581E71
:103830008E4201D1031CF2E71170201C0193FFF7A7
:1038400051FFEAE75A1CE262A26AD3181B7873554B
:103850000135AFE7281CFEBD37B54368027A1B6807
:10386000083252019A18041CD0790123FF21184212
:1038700055D0D371A068656962680140002D1FD1E1
:103880004901521891688904890C2162216A002932
:1038900042D06361A36A68465360FFF7E5FE019B6F
:1038A000013B5D1C34D0621D0120D0772F3211788E
:1038B0005D1EC9B21218002915D111702B1CF0E73A
:1038C0004B01D3189A689204920C2263226B002A4F
:1038D00022D000226261A26968465A60FFF7C4FEE6
:1038E000019B013B12E0019310706846FFF7C3FE95
:1038F00015E0221C343201201070621DD17F5D1E44
:10390000C9B230320029EED111702B1C5D1CF0D1F0
:1039100068460193FFF7AFFE201CFFF7E3FE37BDBB
:1039200037B500236C46E3710734201C0D1C00F0F2
:1039300013FE2B681818286000F0B6FE211C00F05A
:103940006DFE2B681818286020783EBD03290BD126
:103950000D4BB2221B685200985C80214942014302
:103960009954022168220CE001290CD1064B9222C5
:103970001B685200985C80214942014399540221FE
:103980002822FF3299547047C40B002038B5304BC1
:1039900000240121051C1A201C70FFF787FC1A2047
:1039A0000121FFF7DDFC2B4B192001211C70FFF7D3
:1039B0007DFC19200121FFF7D3FC274B2021DA6978
:1039C00001200A43DA61254B06241A7802431A7053
:1039D000234B0F22197891431970197821431970DC
:1039E00020490C782043087019780A401A701A7818
:1039F00060210A431A701C4B1C4A5A805A78D2091B
:103A0000FCD11B48FFF746FA1A4C201CFFF7EAFDD1
:103A1000201CFFF7FBFD23687F2219780A401A70EB
:103A20001A7804210A431A701A890C218A431A81D0
:103A3000C121114A890050580002000A50508021CB
:103A400011601A7802210A431A7001232B7038BDC5
:103A5000D8090020C00B0020000400405844004159
:103A60003C44004159440041000C00400640000025
:103A7000A5440000C40B002000E100E0007800280D
:103A800010D0094B01211B681A898A431A811A8BAD
:103A900008210A431A831A8B04210A431A83034B11
:103AA00000221A607047C046C40B0020C80C0020DA
:103AB0000F4B9A69920B92039A611B680222FF33A3
:103AC0001A7298798022524202439A711A7A9007A8
:103AD000FCD5084B081C997A7F2210409143014382
:103AE0009972997A802252420A439A727047C0466C
:103AF000C40B00200050004110B50B790C1C002BAA
:103B00000BD1081C00F036FD002804D1094B9A693E
:103B1000920B92039A6101200BE000F0C5FD211C7D
:103B200000F0B0FD0028F6D1024B9A69920B920387
:103B30009A6110BDC40B0020F7B50E1C832A18D162
:103B4000CAB235495301CB189C693448B6012040AC
:103B5000C024A405204398613148083286195E616B
:103B60000B685201D15C7020814340200143D15445
:103B700050E0022A4AD12B4A89008D580191002D2C
:103B800048D1382000F09EFC274B80270360224B51
:103B90007F004360431D0562866005614561C56124
:103BA000C760DD772F33041CC56205631D70381CA8
:103BB0005D7000F083FEA061381C00F07FFEFF23E3
:103BC00015491E407601A0628E19B168134A072577
:103BD0000A40C02189050A43B260A16862681940A1
:103BE000126808314901885CA8430325284388549A
:103BF000A268616813405B01A269CB185A60201C5F
:103C0000FFF770FD019B07495C5003E0081C111C85
:103C1000FFF784FCF7BDC046C40B0020FFFFFF8FF9
:103C2000180800209C0B0020E04E000038B5051C51
:103C30000124064BA200D258002A06D0211C281CC1
:103C40000134FFF779FFE4B2F3E738BD2800002024
:103C500008B5084B8A00D058002803D003689B6839
:103C6000984706E0C9B2044B490159188868800496
:103C7000800C08BD9C0B0020C40B002010B50C1C50
:103C8000FFF7E6FF00280CD0064BE1B21B680831B5
:103C9000490159184A7980235B4213434B7102232F
:103CA000CB7110BDC40B002070B5CAB2134B1448C1
:103CB000540189015918031959609D681149083246
:103CC00029408025AD022943996099684026890BD7
:103CD000890399600368510159180D7935430D71B5
:103CE0005101591889794D06FAD551015918C979E8
:103CF000CD07FAD50419A068C0B270BDDC09002058
:103D0000C40B0020FF3F00F038B50C4B141C1B689F
:103D10000D1CFF335A7940210A435A710021FFF7E5
:103D2000C3FFA04200D9201C0023A34204D0044AB0
:103D30009A5CEA540133F8E738BDC046C40B002052
:103D4000DC09002010B5C9B20C48490143189A6833
:103D50009204920C3F2A08D9141C9A68403CA4048F
:103D6000920BA40C9203224302E09A68920B9203F6
:103D70009A6041188868C0B210BDC046C40B0020CC
:103D8000F0B51C1C2F4B85B01B68061C0D1C029245
:103D9000002B51D02C4F3978C9B2002902D11920FB
:103DA000FFF7DEFA64233B70284BAA00D0580028A6
:103DB00005D0036802995B68221C984740E0301CDC
:103DC000291CFFF745FFA04204D2301C291CFFF735
:103DD0003FFF041C291C301CFFF7B4FF1C4FE9B245
:103DE0004A010191396803928B18FF335A7A0121F5
:103DF0000A4318495A72AB01C9180298221C00F0F4
:103E000067FD002C1BD0301C291CFFF721FF002868
:103E100015D1019B3A6808335B01D318197940200A
:103E2000014319710121D97103995318FF339A7A0B
:103E300001210A439A7202E00120404200E0201C66
:103E400005B0F0BDC80C0020C00B00209C0B00206A
:103E5000C40B0020DC09002013B56C460734221C7B
:103E60000123FFF78DFF012801D1207801E0012017
:103E7000404216BDF0B51C1C3F4B85B01B680E1CA4
:103E80000292002B6AD08023DB019C4266D83B4D16
:103E90002978C9B2002902D11A20FFF761FA6423F8
:103EA00000222B700092002C56D0354DF7B22B68B3
:103EB00001933B1C0833019A5B01D3189B79DB0902
:103EC0001AD0304B3049186800F00AFC2F4B1721EC
:103ED000584300F005FC3B1C0833019A5B01D318E2
:103EE000DB799A0708D42A4B9A5D002A38D1421E02
:103EF000002835D0101CEEE7254B00229A55251ED0
:103F00003F2D00D93F25234AB301D318181C02992D
:103F10002A1C039300F0DCFC194A7B01D318039A96
:103F2000A9045A619A69890C920B92030A439A6117
:103F30003B1C019A08335B01D3180222DA715979CC
:103F4000802252420A435A71009B029A5B1952190D
:103F50000093641B0292A6E700980BE0012008E0A2
:103F600001229A557B01ED18AB69101C9B0B9B033A
:103F7000AB61404205B0F0BDC80C0020D80900205C
:103F8000C40B00201800002040420F0070110100F7
:103F9000100800201808002070B50E4D1C1C8B0165
:103FA000ED18281C0E1C111C221C00F091FCF6B20E
:103FB0000949760189194D618A69084B201C134013
:103FC0008B618B69A2049B0B920C9B0313438B6147
:103FD00070BDC04618080020C40B0020FF3F00F051
:103FE000F7B5114B01901B780F1C141C002B19D135
:103FF0000E4B1E78002E01D1151C08E00C4D0D480B
:104000002E888019361900F063FC2E800AE0002DFE
:1040100008D0BA192B1C01980021FFF7BDFF3618F4
:104020002D1AF4E7201CFEBDBA0B0020B80B0020AF
:104030000E0800200D070020F8B50E1C00AF151E5D
:10404000012D28D9D31DDB08DB006A46D21A95461C
:10405000081C00F0B5FC01306C46400003232070C2
:1040600063700222AA420ED23378002B0BD0511C6F
:10407000C9B20136A354A94204D0002302326354CA
:10408000D2B2EFE72A1C0548211CFFF7A9FF431E07
:104090009841C0B200E00020BD46F8BDBB0B002037
:1040A00008B5044B00221A70034B04491A88FFF725
:1040B00097FF08BDB80B00200E0800200D07002058
:1040C000F0B5204A87B001230026009102A91370A1
:1040D000051C0296FFF724FC03AC092701903A1C4B
:1040E000201C311C00F0FDFB02236370A023E37150
:1040F000FA232372029B0122DB196380019B627108
:104100002371104A009B27701670BB4205D1281CF2
:10411000211C1A1CFFF764FF11E00B4B01221A70DF
:104120000A4B211C3A1C281C1E800296FFF758FFE0
:10413000281C02A9FFF7F4FB281CFFF7B1FF0120A0
:1041400007B0F0BDBA0B0020B80B00200E0800200D
:1041500070B5CE7892B0051C0C1C022E08D1C9880F
:104160002D48FFF7ADFF031C581E8341D8B251E024
:1041700000F09AFA211C00F066FA002803D0C31759
:104180001B1AD80F46E0012E04D1E2882349112AD8
:104190003BD837E0032E3DD1A278002A05D1204933
:1041A000E2880B7893422DD82FE0022A03D1A2791E
:1041B000281C1C4904E0012A05D1A2791A49281CAF
:1041C000FFF73AFF26E0032A24D1184B01A918680B
:1041D000FFF796F9164B03A91868FFF791F9154BED
:1041E00005A91868FFF78CF9134B07A91868FFF7A2
:1041F00087F900F059FA09A900F035FAA279281CCC
:1042000001A9DDE7D2B2002A00D10A78281CFFF705
:10421000E7FE012012B070BDBB0B0020FE4E000077
:10422000FA4E0000104F0000F04E00000CA080007D
:1042300040A0800044A0800048A0800073B5051C09
:1042400048780C1C0B2878D800F040FA081C772816
:10425000773E4306474B686F00206FE0097801AA5C
:10426000002903D111705170281C09E0002313703C
:104270005370334B1B78012B00D11370281C002185
:1042800002234FE08A780023012A04D101AA137087
:1042900053702C4BEEE72A4A137049E08E78012EBA
:1042A00007D1284B01AA00211E701170281C331C55
:1042B00038E0002E08D1224A01231370224A916966
:1042C000890B8903916138E0A178281CFFF7F0FB86
:1042D00033E0281CFFF73CFF30E0281C00211B4A7C
:1042E0001FE00A780020D30628D1281CFFF79EFC87
:1042F000A2781549154B02241A600A682A23FF3355
:10430000D05C2043D0544A20FF30145C01231C436E
:1043100014548A69920B92038A610EE00C4A281C9D
:1043200000210123FFF738FE07E08A78084B1A6066
:10433000054B9A69920B92039A61012076BDC046A3
:104340000C070020B90B0020C40B0020C80C002073
:10435000BC0B0020F8B54B4B071C1C78002C00D080
:104360008FE0494D2868838B19070ED5201C211C2E
:10437000FFF7D4F82B6810201A1CFF32917A014302
:104380009172424A146008229A832B689A8B5007D4
:104390001FD504229A833E4B1A78002A0AD01A7835
:1043A000013AD2B21A701B78002B03D11A200121D6
:1043B000FEF7D6FF374B1A78002A0AD01A78013A4E
:1043C000D2B21A701B78002B03D119200121FEF7FD
:1043D000C7FF2B68FF331A7AD10626D510221A722E
:1043E0005A7940210A432C495A710A786023381CB3
:1043F0001A4202D1FFF722FF01E0FFF77DFB002800
:1044000006D02B688022FF33997952420A4301E09B
:10441000224B20229A712B68FF331A7A500604D55A
:1044200040221A72597A0A435A722968FE230E8C66
:1044300000241E40E1B2002E23D0321C0123224171
:104440001A4216D0221C2868083252018218D079EC
:10445000184203D1D279DA401A4207D0104BA20099
:10446000D058002809D003681B6898470123A3404F
:104470009E430134092CDDD103E0381CFFF766FAB6
:10448000F4E7F8BDB80B0020C40B0020C80C0020D6
:10449000D8090020C00B0020DC090020FF5000419B
:1044A0009C0B002008B50248FFF754FF08BDC0462A
:1044B000BB0B0020014A024B1A60704700500041BC
:1044C000C40B002008B500F0F9F908BD3F20704783
:1044D00013B502686B46D97107335468191C012261
:1044E000A04716BD08B500690221FFF7B1FB08BD62
:1044F00008B500690321FFF7C1FB08BD38B50D1CE5
:10450000041C131C006903212A1CFFF7B3FC0028BC
:1045100001D10123636038BD10B5054C23685A1CD6
:1045200004D103685B6998472060031C181C10BD08
:10453000A0000020074A08B51368591C04D00121C7
:1045400049421160181C03E000690221FFF784FC56
:1045500008BDC046A000002008B503780349023317
:10456000037042220248FFF73BFD08BD5C000020BB
:10457000BB0B002010B50178031C42780020A12954
:1045800008D1212A2FD1184818490722FFF728FD02
:10459000012028E0212926D1202A05D1134907220C
:1045A0001148FFF7B1FB04E0222A10D19A780F4B93
:1045B000DA710E4B96221968D200914210D1DC7943
:1045C00001231C400CD1FA20FEF75CFF0AE0232AED
:1045D00009D1DA789B7812021A43054B1A6002E07F
:1045E000FEF756FF002010BDBB0B0020500000203E
:1045F00058000020064BFA218900996005490022E5
:104600000831196004495A6019611A767047C0462A
:10461000CC0C0020204F0000BB0B002070B544687C
:104620000E1C0025002C09D02368201C5B68311C5F
:104630009847002804DB2D18E468F3E7281C01E004
:104640000120404270BD38B544680D1C002C08D0D4
:104650002368201C9B68291C9847002802D1E46825
:10466000F4E7201C38BD38B544680D1C002C07D079
:104670002368201C291CDB689847E4682D18F5E79F
:104680002C7038BD38B544680D1C002C08D0236848
:10469000201C1B68291C9847002803D1E468F4E714
:1046A000201C00E0012038BD064B0122196810B51E
:1046B0001140054805D1022404700424447041606F
:1046C0001A6010BDF00C0020E80C002002B4714606
:1046D00049084900095C49008E4402BC7047C04645
:1046E000002934D00123002210B488422CD30124A5
:1046F0002407A14204D2814202D209011B01F8E73A
:10470000E400A14204D2814202D249005B00F8E7F2
:10471000884201D3401A1A434C08A04202D3001B1E
:104720005C0822438C08A04202D3001B9C08224351
:10473000CC08A04202D3001BDC082243002803D08F
:104740001B0901D00909E3E7101C10BC70470028C1
:1047500001D00020C04307B4024802A140180290D3
:1047600003BDC046D90000000029F0D003B5FFF713
:10477000B9FF0EBC4243891A1847C046002941D0F0
:1047800010B4041C4C40A44601230022002900D58B
:104790004942002800D5404288422CD301242407F6
:1047A000A14204D2814202D209011B01F8E7E400D0
:1047B000A14204D2814202D249005B00F8E788425C
:1047C00001D3401A1A434C08A04202D3001B5C08D4
:1047D00022438C08A04202D3001B9C082243CC0831
:1047E000A04202D3001BDC082243002803D01B098F
:1047F00001D00909E3E7101C6446002C00D54042B3
:1048000010BC7047002806D003DB0020C0434008DE
:1048100001E08020000607B4024802A1401802907F
:1048200003BDC046190000000029EBD003B5FFF717
:10483000A7FF0EBC4243891A1847C0467047C046BE
:1048400008B5031C081C191C00F002F808BD000084
:1048500038B5051C05480C1C131C002804D0022088
:10486000291C221C00E000BF38BDC046000000002B
:1048700070B50E4B0E4D0024ED1AAD101E1CAC424F
:1048800004D0A300F35898470134F8E700F0BAF8D1
:10489000084B094D0024ED1AAD101E1CAC4204D08B
:1048A000A300F35898470134F8E770BD08010020D1
:1048B00008010020080100201C01002008B5034B5E
:1048C000011C186800F016F808BDC046040100205D
:1048D00010B50023934203D0CC5CC4540133F9E7F4
:1048E00010BD031C8218934202D019700133FAE7FD
:1048F0007047000070B50323CD1C9D430835061C8E
:104900000C2D01D20C2501E0002D3FDB8D423DD363
:10491000204B1C681A1C211C002913D00868431B5B
:104920000DD40B2B02D90B60CC181EE08C4202D1A7
:10493000636813601AE0486860600C1C16E00C1C89
:104940004968E9E7144C2068002803D1301C00F0C6
:1049500025F82060301C291C00F020F8431C15D0DD
:10496000C41C03239C4384420AD12560201C0B30C5
:104970000722231D9043C31A0BD05A42E25008E08D
:10498000211A301C00F00AF80130EED10C233360FC
:10499000002070BDF80C0020F40C002038B5074C46
:1049A0000023051C081C236000F012F8431C03D1EF
:1049B0002368002B00D02B6038BDC046A80D002016
:1049C0000023C25C0133002AFBD1581E704700004F
:1049D000094A1368002B0CD018186946884202D87F
:1049E0001060181C7047054B0C2201201A604042D1
:1049F000F8E7034B1360EFE7FC0C0020A80D002044
:104A0000AC0D0020F8B5C046F8BC08BC9E46704707
:104A1000F8B5C046F8BC08BC9E46704748434920DC
:104A200050434200000000000000000000000000B1
:104A30003922000069220000F92100007D220000D7
:104A4000FD21000007220000732200004322000025
:104A5000000000000000545452205245474745537F
:104A6000005465726D696E616C000000000000000A
:104A70000B0000000200000004000000FF00FFFF28
:104A8000FFFF0B00000000000A0000000200000011
:104A900004000000FF00FFFFFFFF0A00000000000D
:104AA0000E0000000800000004000000FF00FFFFEF
:104AB000FFFF0E00000000000900000004000000DD
:104AC0001C000000FF0001000100090000000000C0
:104AD00008000000040000001C000000FF000000AF
:104AE00000001000000000000F00000004000000A3
:104AF0001C000000FF00010301030F000000000084
:104B000014000000050000002C000000FF0002005F
:104B10000200040000000000150000000800000072
:104B200004000000FF00FFFFFFFF05000000000081
:104B300006000000040000001C000000FF0000014F
:104B40000001060000000000070000000400000053
:104B50001C000000FF00010101010700000000002F
:104B600012000000020000001C000000FF00000313
:104B7000000302000000000010000000020000001E
:104B80001C000000FF000002000200000000000006
:104B900013000000020000001C000000FF000300E2
:104BA00003000300000000001100000002000000EC
:104BB0000C000000FF000102FFFF010000000000E8
:104BC0000200000001000000020000000000FFFFE2
:104BD000FFFF0200010000000800000001000000CB
:104BE000020000000200FFFFFFFF080001000000BC
:104BF0000900000001000000020000000300FFFFA8
:104C0000FFFF090000000000040000000100000098
:104C1000020000000400FFFFFFFF0400000000008E
:104C20000500000001000000020000000500FFFF79
:104C3000FFFF05000100000002000000010000006D
:104C4000020000000A00FFFFFFFF0200000000005A
:104C5000160000000200000004000000FF00FFFF3B
:104C6000FFFF060000000000170000000200000027
:104C700004000000FF00FFFFFFFF0700000000002E
:104C80000C0000000300000004000000FF00FFFF14
:104C9000FFFF0C00010000000A00000003000000FC
:104CA00004000000FF00FFFFFFFF0A0001000000FA
:104CB0000B0000000300000004000000FF00FFFFE5
:104CC000FFFF0B0001000000030000000B000000CC
:104CD00004000000FF00FFFFFFFFFF0000000000D6
:104CE0001B0000000B00000004000000FF00FFFF9D
:104CF000FFFFFF00000000001C0000000600000095
:104D000000000000FF00FFFFFFFFFF0000000000A9
:104D1000180000000600000000000000FF00FFFF78
:104D2000FFFFFF0000000000190000000600000067
:104D300000000000FF00FFFFFFFFFF000100000078
:104D4000160000000300000000000000FF00FFFF4D
:104D5000FFFFFF000100000017000000030000003B
:104D600000000000FF00FFFFFFFFFF000000000049
:104D7000160000000200000000000000FF00FFFF1E
:104D8000FFFFFF000000000017000000020000000D
:104D900000000000FF00FFFFFFFFFF000000000019
:104DA000130000000200000000000000FF00FFFFF1
:104DB000FFFFFF00000000001000000002000000E4
:104DC00000000000FF00FFFFFFFFFF0000000000E9
:104DD000120000000200000000000000FF00FFFFC2
:104DE000FFFFFF00000000001100000002000000B3
:104DF00000000000FF00FFFFFFFFFF0000000000B9
:104E00000D000000040000000C000000FF00010085
:104E1000FFFF0D000000000015000000050000006D
:104E20000C000000FF000300FFFFFF000000000077
:104E300006000000040000000C000000FF0000015C
:104E4000FFFFFF000000000007000000040000005A
:104E50000C000000FF000101FFFFFF000000000048
:104E6000030000000100000002000000FF00FFFF3F
:104E7000FFFFFF0000000000020000000100000032
:104E8000020000001400FFFFFFFF02000D0A006E89
:104E9000616E00696E66006F7666000000000000BB
:104EA0000000000000000000192D0000BD260000D9
:104EB0005B2C00001D2C0000352C0000D12D0000C3
:104EC000F5290000E52900001D2B00000B2A000039
:104ED000E1290000000000000000000000000000C8
:104EE000593800003D370000853600000000000002
:104EF000537061726B46756E000004030904120161
:104F00000002EF0201404F1B218D0001010203014D
:104F10005346452053414D4432310000000000000B
:104F20000000000000000000D1440000FD4400002B
:104F3000CD440000F1440000E54400003545000088
:104F400019450000000000004300000000000000C0
:104F50000000000003000000090000000400000041
:104F6000030000000100000040420F000A000000A2
:104F70000A000000FFFFFFFF0000000083000000A8
:104F8000020000008200000000000000000000009D
:104F90000000000000000000000000000000000011
:104FA00000C2010000000800FFFFFFFF080B000225
:104FB00002020000090400000102020000052400B2
:104FC0001001042402060524060001052401010144
:104FD0000705810310001009040100020A00000007
:104FE00007050202400000070583024000000000A0
:104FF000FFFFFFFF000000000000000000000000B5
:1050000000000000000000000000000000000000A0
:1050100000000000484F00000000000000000000F9
:105020000000000000000000000000000000000080
:105030000000000000000000000000000000000070
:105040000000000000000000000000000000000060
:1050500000000000A4000020DD200000D521000099
:1050600029260000B5440000F5450000B5200000E9
:04507000000000003C
:0400000300002E319A
:00000001FF
